{
  "contractName": "Products",
  "abi": [
    {
      "constant": true,
      "inputs": [
        {
          "internalType": "uint256",
          "name": "",
          "type": "uint256"
        }
      ],
      "name": "P_list",
      "outputs": [
        {
          "internalType": "string",
          "name": "p_name",
          "type": "string"
        },
        {
          "internalType": "address",
          "name": "p_manufacturer",
          "type": "address"
        },
        {
          "internalType": "uint256",
          "name": "p_qty",
          "type": "uint256"
        },
        {
          "internalType": "uint256",
          "name": "p_price",
          "type": "uint256"
        }
      ],
      "payable": false,
      "stateMutability": "view",
      "type": "function"
    },
    {
      "constant": true,
      "inputs": [],
      "name": "count",
      "outputs": [
        {
          "internalType": "uint256",
          "name": "",
          "type": "uint256"
        }
      ],
      "payable": false,
      "stateMutability": "view",
      "type": "function"
    },
    {
      "constant": false,
      "inputs": [
        {
          "internalType": "string",
          "name": "_name",
          "type": "string"
        },
        {
          "internalType": "uint256",
          "name": "qty",
          "type": "uint256"
        },
        {
          "internalType": "uint256",
          "name": "price",
          "type": "uint256"
        }
      ],
      "name": "AddProduct",
      "outputs": [],
      "payable": false,
      "stateMutability": "nonpayable",
      "type": "function"
    },
    {
      "constant": false,
      "inputs": [
        {
          "internalType": "uint256",
          "name": "_id",
          "type": "uint256"
        },
        {
          "internalType": "uint256",
          "name": "_qty",
          "type": "uint256"
        }
      ],
      "name": "BuyProduct",
      "outputs": [],
      "payable": false,
      "stateMutability": "nonpayable",
      "type": "function"
    }
  ],
  "bytecode": "0x60806040526000805534801561001457600080fd5b506106e3806100246000396000f3fe608060405234801561001057600080fd5b506004361061004c5760003560e01c806306661abd146100515780635069611f1461006f5780637f8c97de14610157578063ab6722e71461018f575b600080fd5b61005961025e565b6040518082815260200191505060405180910390f35b61009b6004803603602081101561008557600080fd5b8101908080359060200190929190505050610264565b60405180806020018573ffffffffffffffffffffffffffffffffffffffff1673ffffffffffffffffffffffffffffffffffffffff168152602001848152602001838152602001828103825286818151815260200191508051906020019080838360005b838110156101195780820151818401526020810190506100fe565b50505050905090810190601f1680156101465780820380516001836020036101000a031916815260200191505b509550505050505060405180910390f35b61018d6004803603604081101561016d57600080fd5b81019080803590602001909291908035906020019092919050505061034c565b005b61025c600480360360608110156101a557600080fd5b81019080803590602001906401000000008111156101c257600080fd5b8201836020820111156101d457600080fd5b803590602001918460018302840111640100000000831117156101f657600080fd5b91908080601f016020809104026020016040519081016040528093929190818152602001838380828437600081840152601f19601f820116905080830192505050505050509192919290803590602001909291908035906020019092919050505061052d565b005b60005481565b6001602052806000526040600020600091509050806000018054600181600116156101000203166002900480601f0160208091040260200160405190810160405280929190818152602001828054600181600116156101000203166002900480156103105780601f106102e557610100808354040283529160200191610310565b820191906000526020600020905b8154815290600101906020018083116102f357829003601f168201915b5050505050908060010160009054906101000a900473ffffffffffffffffffffffffffffffffffffffff16908060020154908060030154905084565b60008160016000858152602001908152602001600020600201540390506040518060800160405280600160008681526020019081526020016000206000018054600181600116156101000203166002900480601f01602080910402602001604051908101604052809291908181526020018280546001816001161561010002031660029004801561041e5780601f106103f35761010080835404028352916020019161041e565b820191906000526020600020905b81548152906001019060200180831161040157829003601f168201915b505050505081526020016001600086815260200190815260200160002060010160009054906101000a900473ffffffffffffffffffffffffffffffffffffffff1673ffffffffffffffffffffffffffffffffffffffff16815260200182815260200160016000868152602001908152602001600020600301548152506001600085815260200190815260200160002060008201518160000190805190602001906104c9929190610609565b5060208201518160010160006101000a81548173ffffffffffffffffffffffffffffffffffffffff021916908373ffffffffffffffffffffffffffffffffffffffff1602179055506040820151816002015560608201518160030155905050505050565b600080815480929190600101919050555060405180608001604052808481526020013373ffffffffffffffffffffffffffffffffffffffff16815260200183815260200182815250600160008054815260200190815260200160002060008201518160000190805190602001906105a5929190610609565b5060208201518160010160006101000a81548173ffffffffffffffffffffffffffffffffffffffff021916908373ffffffffffffffffffffffffffffffffffffffff1602179055506040820151816002015560608201518160030155905050505050565b828054600181600116156101000203166002900490600052602060002090601f016020900481019282601f1061064a57805160ff1916838001178555610678565b82800160010185558215610678579182015b8281111561067757825182559160200191906001019061065c565b5b5090506106859190610689565b5090565b6106ab91905b808211156106a757600081600090555060010161068f565b5090565b9056fea265627a7a7231582064c45bb642f2a3953879faa33e8bb4a921a7401b55e0944d382afb0b0e9f549a64736f6c63430005100032",
  "source": "// SPDX-License-Identifier: MIT\r\npragma solidity >=0.4.22 <0.8.0;\r\n\r\ncontract Products {\r\n    uint public count = 0;\r\n    struct Product{\r\n        string p_name;\r\n        address p_manufacturer;\r\n        uint p_qty;\r\n        uint p_price;\r\n    }\r\n    mapping (uint => Product) public P_list;\r\n\r\n    function AddProduct (string memory _name, uint qty, uint price) public {\r\n        count++;\r\n        P_list[count]=Product(_name, msg.sender, qty, price);\r\n    }\r\n\r\n    function BuyProduct (uint _id, uint _qty) public {    \r\n       \r\n        uint _q=P_list[_id].p_qty-_qty;\r\n        P_list[_id]=Product(P_list[_id].p_name,P_list[_id].p_manufacturer, _q,P_list[_id].p_price);\r\n    }\r\n\r\n    \r\n  \r\n}\r\n",
  "sourcePath": "C:\\Users\\abhin\\Desktop\\XIMB\\Subject_Class_Notes_and_Assignments\\Blockchain\\3\\Sample\\contracts\\Products.sol",
  "compiler": {
    "name": "solc",
    "version": "0.5.16+commit.9c3226ce.Emscripten.clang"
  },
  "schemaVersion": "3.4.3",
  "updatedAt": "2021-12-04T17:13:25.474Z",
  "networkType": "ethereum",
  "devdoc": {
    "methods": {}
  },
  "userdoc": {
    "methods": {}
  }
}